{
    "_format": "hh-sol-artifact-1",
    "contractName": "TaskReward",
    "sourceName": "contracts/TaskReward.sol",
    "abi": [
        {
            "anonymous": false,
            "inputs": [
                {
                    "indexed": false,
                    "internalType": "uint256",
                    "name": "taskId",
                    "type": "uint256"
                },
                {
                    "indexed": true,
                    "internalType": "address",
                    "name": "creator",
                    "type": "address"
                },
                {
                    "indexed": true,
                    "internalType": "address",
                    "name": "worker",
                    "type": "address"
                },
                {
                    "indexed": false,
                    "internalType": "uint256",
                    "name": "reward",
                    "type": "uint256"
                }
            ],
            "name": "TaskApproved",
            "type": "event"
        },
        {
            "anonymous": false,
            "inputs": [
                {
                    "indexed": false,
                    "internalType": "uint256",
                    "name": "taskId",
                    "type": "uint256"
                },
                {
                    "indexed": true,
                    "internalType": "address",
                    "name": "worker",
                    "type": "address"
                }
            ],
            "name": "TaskCompleted",
            "type": "event"
        },
        {
            "anonymous": false,
            "inputs": [
                {
                    "indexed": false,
                    "internalType": "uint256",
                    "name": "taskId",
                    "type": "uint256"
                },
                {
                    "indexed": true,
                    "internalType": "address",
                    "name": "creator",
                    "type": "address"
                },
                {
                    "indexed": false,
                    "internalType": "uint256",
                    "name": "reward",
                    "type": "uint256"
                }
            ],
            "name": "TaskCreated",
            "type": "event"
        },
        {
            "anonymous": false,
            "inputs": [
                {
                    "indexed": false,
                    "internalType": "uint256",
                    "name": "taskId",
                    "type": "uint256"
                },
                {
                    "indexed": true,
                    "internalType": "address",
                    "name": "creator",
                    "type": "address"
                }
            ],
            "name": "TaskRejected",
            "type": "event"
        },
        {
            "inputs": [
                {
                    "internalType": "uint256",
                    "name": "_taskId",
                    "type": "uint256"
                }
            ],
            "name": "approveTask",
            "outputs": [],
            "stateMutability": "nonpayable",
            "type": "function"
        },
        {
            "inputs": [
                {
                    "internalType": "string",
                    "name": "_description",
                    "type": "string"
                }
            ],
            "name": "createTask",
            "outputs": [],
            "stateMutability": "payable",
            "type": "function"
        },
        {
            "inputs": [
                {
                    "internalType": "uint256",
                    "name": "_taskId",
                    "type": "uint256"
                }
            ],
            "name": "rejectTask",
            "outputs": [],
            "stateMutability": "nonpayable",
            "type": "function"
        },
        {
            "inputs": [
                {
                    "internalType": "uint256",
                    "name": "_taskId",
                    "type": "uint256"
                }
            ],
            "name": "submitTask",
            "outputs": [],
            "stateMutability": "nonpayable",
            "type": "function"
        },
        {
            "inputs": [],
            "name": "taskCount",
            "outputs": [
                {
                    "internalType": "uint256",
                    "name": "",
                    "type": "uint256"
                }
            ],
            "stateMutability": "view",
            "type": "function"
        },
        {
            "inputs": [
                {
                    "internalType": "uint256",
                    "name": "",
                    "type": "uint256"
                }
            ],
            "name": "tasks",
            "outputs": [
                {
                    "internalType": "address",
                    "name": "creator",
                    "type": "address"
                },
                {
                    "internalType": "string",
                    "name": "description",
                    "type": "string"
                },
                {
                    "internalType": "uint256",
                    "name": "reward",
                    "type": "uint256"
                },
                {
                    "internalType": "address",
                    "name": "worker",
                    "type": "address"
                },
                {
                    "internalType": "bool",
                    "name": "completed",
                    "type": "bool"
                },
                {
                    "internalType": "bool",
                    "name": "approved",
                    "type": "bool"
                }
            ],
            "stateMutability": "view",
            "type": "function"
        }
    ],
    "bytecode": "0x6080604052348015600f57600080fd5b506113ff8061001f6000396000f3fe6080604052600436106100555760003560e01c80630a07fae61461005a578063111002aa1461008357806330a939fe1461009f5780637d81b40b146100c85780638d977672146100f1578063b6cb58a514610133575b600080fd5b34801561006657600080fd5b50610081600480360381019061007c9190610a9a565b61015e565b005b61009d60048036038101906100989190610c0d565b61039a565b005b3480156100ab57600080fd5b506100c660048036038101906100c19190610a9a565b6105af565b005b3480156100d457600080fd5b506100ef60048036038101906100ea9190610a9a565b61075c565b005b3480156100fd57600080fd5b5061011860048036038101906101139190610a9a565b61092c565b60405161012a96959493929190610d40565b60405180910390f35b34801561013f57600080fd5b50610148610a4a565b6040516101559190610da8565b60405180910390f35b600080600083815260200190815260200160002090508060000160009054906101000a900473ffffffffffffffffffffffffffffffffffffffff1673ffffffffffffffffffffffffffffffffffffffff163373ffffffffffffffffffffffffffffffffffffffff1614610206576040517f08c379a00000000000000000000000000000000000000000000000000000000081526004016101fd90610e0f565b60405180910390fd5b8060030160149054906101000a900460ff16610257576040517f08c379a000000000000000000000000000000000000000000000000000000000815260040161024e90610e7b565b60405180910390fd5b60018160030160156101000a81548160ff0219169083151502179055508060030160009054906101000a900473ffffffffffffffffffffffffffffffffffffffff1673ffffffffffffffffffffffffffffffffffffffff166108fc82600201549081150290604051600060405180830381858888f193505050501580156102e2573d6000803e3d6000fd5b508060030160009054906101000a900473ffffffffffffffffffffffffffffffffffffffff1673ffffffffffffffffffffffffffffffffffffffff168160000160009054906101000a900473ffffffffffffffffffffffffffffffffffffffff1673ffffffffffffffffffffffffffffffffffffffff167f320126ac0f44cc9ce9091ce7ce92023490feb9848de4b892369ef95c2096553384846002015460405161038e929190610e9b565b60405180910390a35050565b600034116103dd576040517f08c379a00000000000000000000000000000000000000000000000000000000081526004016103d490610f10565b60405180910390fd5b600160008154809291906103f090610f5f565b91905055506040518060c001604052803373ffffffffffffffffffffffffffffffffffffffff168152602001828152602001348152602001600073ffffffffffffffffffffffffffffffffffffffff16815260200160001515815260200160001515815250600080600154815260200190815260200160002060008201518160000160006101000a81548173ffffffffffffffffffffffffffffffffffffffff021916908373ffffffffffffffffffffffffffffffffffffffff16021790555060208201518160010190816104c591906111b3565b506040820151816002015560608201518160030160006101000a81548173ffffffffffffffffffffffffffffffffffffffff021916908373ffffffffffffffffffffffffffffffffffffffff16021790555060808201518160030160146101000a81548160ff02191690831515021790555060a08201518160030160156101000a81548160ff0219169083151502179055509050503373ffffffffffffffffffffffffffffffffffffffff167f6cf53aa7292e664152c2ea948c3b3c95d4b05c36daeb2626d0293473c4a4a153600154346040516105a4929190610e9b565b60405180910390a250565b60008060008381526020019081526020016000209050600073ffffffffffffffffffffffffffffffffffffffff168160030160009054906101000a900473ffffffffffffffffffffffffffffffffffffffff1673ffffffffffffffffffffffffffffffffffffffff1614610658576040517f08c379a000000000000000000000000000000000000000000000000000000000815260040161064f906112d1565b60405180910390fd5b8060030160149054906101000a900460ff16156106aa576040517f08c379a00000000000000000000000000000000000000000000000000000000081526004016106a19061133d565b60405180910390fd5b338160030160006101000a81548173ffffffffffffffffffffffffffffffffffffffff021916908373ffffffffffffffffffffffffffffffffffffffff16021790555060018160030160146101000a81548160ff0219169083151502179055503373ffffffffffffffffffffffffffffffffffffffff167fbb5889c77948badf90e8a5c73d55265e5f5d6e4837a79a78c5669691b897faed836040516107509190610da8565b60405180910390a25050565b600080600083815260200190815260200160002090508060000160009054906101000a900473ffffffffffffffffffffffffffffffffffffffff1673ffffffffffffffffffffffffffffffffffffffff163373ffffffffffffffffffffffffffffffffffffffff1614610804576040517f08c379a00000000000000000000000000000000000000000000000000000000081526004016107fb906113a9565b60405180910390fd5b8060030160149054906101000a900460ff16610855576040517f08c379a000000000000000000000000000000000000000000000000000000000815260040161084c90610e7b565b60405180910390fd5b60008160030160006101000a81548173ffffffffffffffffffffffffffffffffffffffff021916908373ffffffffffffffffffffffffffffffffffffffff16021790555060008160030160146101000a81548160ff0219169083151502179055508060000160009054906101000a900473ffffffffffffffffffffffffffffffffffffffff1673ffffffffffffffffffffffffffffffffffffffff167fae1c93c6393c5abab2eaef81c691beeb381335c7913caabf8feaa0b24bd03cc0836040516109209190610da8565b60405180910390a25050565b60006020528060005260406000206000915090508060000160009054906101000a900473ffffffffffffffffffffffffffffffffffffffff169080600101805461097590610fd6565b80601f01602080910402602001604051908101604052809291908181526020018280546109a190610fd6565b80156109ee5780601f106109c3576101008083540402835291602001916109ee565b820191906000526020600020905b8154815290600101906020018083116109d157829003601f168201915b5050505050908060020154908060030160009054906101000a900473ffffffffffffffffffffffffffffffffffffffff16908060030160149054906101000a900460ff16908060030160159054906101000a900460ff16905086565b60015481565b6000604051905090565b600080fd5b600080fd5b6000819050919050565b610a7781610a64565b8114610a8257600080fd5b50565b600081359050610a9481610a6e565b92915050565b600060208284031215610ab057610aaf610a5a565b5b6000610abe84828501610a85565b91505092915050565b600080fd5b600080fd5b6000601f19601f8301169050919050565b7f4e487b7100000000000000000000000000000000000000000000000000000000600052604160045260246000fd5b610b1a82610ad1565b810181811067ffffffffffffffff82111715610b3957610b38610ae2565b5b80604052505050565b6000610b4c610a50565b9050610b588282610b11565b919050565b600067ffffffffffffffff821115610b7857610b77610ae2565b5b610b8182610ad1565b9050602081019050919050565b82818337600083830152505050565b6000610bb0610bab84610b5d565b610b42565b905082815260208101848484011115610bcc57610bcb610acc565b5b610bd7848285610b8e565b509392505050565b600082601f830112610bf457610bf3610ac7565b5b8135610c04848260208601610b9d565b91505092915050565b600060208284031215610c2357610c22610a5a565b5b600082013567ffffffffffffffff811115610c4157610c40610a5f565b5b610c4d84828501610bdf565b91505092915050565b600073ffffffffffffffffffffffffffffffffffffffff82169050919050565b6000610c8182610c56565b9050919050565b610c9181610c76565b82525050565b600081519050919050565b600082825260208201905092915050565b60005b83811015610cd1578082015181840152602081019050610cb6565b60008484015250505050565b6000610ce882610c97565b610cf28185610ca2565b9350610d02818560208601610cb3565b610d0b81610ad1565b840191505092915050565b610d1f81610a64565b82525050565b60008115159050919050565b610d3a81610d25565b82525050565b600060c082019050610d556000830189610c88565b8181036020830152610d678188610cdd565b9050610d766040830187610d16565b610d836060830186610c88565b610d906080830185610d31565b610d9d60a0830184610d31565b979650505050505050565b6000602082019050610dbd6000830184610d16565b92915050565b7f4f6e6c792063726561746f722063616e20617070726f76650000000000000000600082015250565b6000610df9601883610ca2565b9150610e0482610dc3565b602082019050919050565b60006020820190508181036000830152610e2881610dec565b9050919050565b7f5461736b206d75737420626520636f6d706c6574656420666972737400000000600082015250565b6000610e65601c83610ca2565b9150610e7082610e2f565b602082019050919050565b60006020820190508181036000830152610e9481610e58565b9050919050565b6000604082019050610eb06000830185610d16565b610ebd6020830184610d16565b9392505050565b7f526577617264206d7573742062652067726561746572207468616e207a65726f600082015250565b6000610efa602083610ca2565b9150610f0582610ec4565b602082019050919050565b60006020820190508181036000830152610f2981610eed565b9050919050565b7f4e487b7100000000000000000000000000000000000000000000000000000000600052601160045260246000fd5b6000610f6a82610a64565b91507fffffffffffffffffffffffffffffffffffffffffffffffffffffffffffffffff8203610f9c57610f9b610f30565b5b600182019050919050565b7f4e487b7100000000000000000000000000000000000000000000000000000000600052602260045260246000fd5b60006002820490506001821680610fee57607f821691505b60208210810361100157611000610fa7565b5b50919050565b60008190508160005260206000209050919050565b60006020601f8301049050919050565b600082821b905092915050565b6000600883026110697fffffffffffffffffffffffffffffffffffffffffffffffffffffffffffffffff8261102c565b611073868361102c565b95508019841693508086168417925050509392505050565b6000819050919050565b60006110b06110ab6110a684610a64565b61108b565b610a64565b9050919050565b6000819050919050565b6110ca83611095565b6110de6110d6826110b7565b848454611039565b825550505050565b600090565b6110f36110e6565b6110fe8184846110c1565b505050565b5b81811015611122576111176000826110eb565b600181019050611104565b5050565b601f8211156111675761113881611007565b6111418461101c565b81016020851015611150578190505b61116461115c8561101c565b830182611103565b50505b505050565b600082821c905092915050565b600061118a6000198460080261116c565b1980831691505092915050565b60006111a38383611179565b9150826002028217905092915050565b6111bc82610c97565b67ffffffffffffffff8111156111d5576111d4610ae2565b5b6111df8254610fd6565b6111ea828285611126565b600060209050601f83116001811461121d576000841561120b578287015190505b6112158582611197565b86555061127d565b601f19841661122b86611007565b60005b828110156112535784890151825560018201915060208501945060208101905061122e565b86831015611270578489015161126c601f891682611179565b8355505b6001600288020188555050505b505050505050565b7f5461736b20616c726561647920636f6d706c6574656400000000000000000000600082015250565b60006112bb601683610ca2565b91506112c682611285565b602082019050919050565b600060208201905081810360008301526112ea816112ae565b9050919050565b7f5461736b20616c7265616479206d61726b656420617320636f6d706c65746564600082015250565b6000611327602083610ca2565b9150611332826112f1565b602082019050919050565b600060208201905081810360008301526113568161131a565b9050919050565b7f4f6e6c792063726561746f722063616e2072656a656374000000000000000000600082015250565b6000611393601783610ca2565b915061139e8261135d565b602082019050919050565b600060208201905081810360008301526113c281611386565b905091905056fea26469706673582212201572fe49489b8836f916fbc8ca2496920163c2a1cae9b598bc699f84dd66665864736f6c634300081c0033",
    "linkReferences": {},
    "deployedLinkReferences": {}
}